{
	"data": {
		"bytecode": {
			"linkReferences": {},
			"object": "608060405234801561001057600080fd5b50610f9a806100206000396000f3fe608060405234801561001057600080fd5b50600436106100415760003560e01c80635f4b2e7514610046578063c3c5951b14610062578063f0c7a36214610092575b600080fd5b610060600480360381019061005b919061093f565b6100c2565b005b61007c600480360381019061007791906108da565b6102af565b6040516100899190610b6e565b60405180910390f35b6100ac60048036038101906100a79190610903565b61043c565b6040516100b99190610b90565b60405180910390f35b6014801115610106576040517f08c379a00000000000000000000000000000000000000000000000000000000081526004016100fd90610bb2565b60405180910390fd5b601480111561014a576040517f08c379a000000000000000000000000000000000000000000000000000000000815260040161014190610bb2565b60405180910390fd5b60005b60148110156102aa57604051806040016040528084836014811061019a577f4e487b7100000000000000000000000000000000000000000000000000000000600052603260045260246000fd5b602002015181526020018383601481106101dd577f4e487b7100000000000000000000000000000000000000000000000000000000600052603260045260246000fd5b60200201518152506000803373ffffffffffffffffffffffffffffffffffffffff1673ffffffffffffffffffffffffffffffffffffffff168152602001908152602001600020826014811061025b577f4e487b7100000000000000000000000000000000000000000000000000000000600052603260045260246000fd5b60020201600082015181600001908051906020019061027b9291906104f5565b5060208201518160010190601f61029392919061057b565b5090505080806102a290610e0f565b91505061014d565b505050565b6102b7610614565b6000808373ffffffffffffffffffffffffffffffffffffffff1673ffffffffffffffffffffffffffffffffffffffff168152602001908152602001600020601480602002604051908101604052809291906000905b828210156104315783826002020160405180604001604052908160008201805461033590610dac565b80601f016020809104026020016040519081016040528092919081815260200182805461036190610dac565b80156103ae5780601f10610383576101008083540402835291602001916103ae565b820191906000526020600020905b81548152906001019060200180831161039157829003601f168201915b5050505050815260200160018201601f806020026040519081016040528092919082601f8015610419576020028201916000905b82829054906101000a900460ff1660ff16815260200190600101906020826000010492830192600103820291508084116103e25790505b5050505050815250508152602001906001019061030c565b505050509050919050565b6000602052816000526040600020816014811061045857600080fd5b600202016000915091505080600001805461047290610dac565b80601f016020809104026020016040519081016040528092919081815260200182805461049e90610dac565b80156104eb5780601f106104c0576101008083540402835291602001916104eb565b820191906000526020600020905b8154815290600101906020018083116104ce57829003601f168201915b5050505050905081565b82805461050190610dac565b90600052602060002090601f016020900481019282610523576000855561056a565b82601f1061053c57805160ff191683800117855561056a565b8280016001018555821561056a579182015b8281111561056957825182559160200191906001019061054e565b5b5090506105779190610642565b5090565b82601f80016020900481019282156106035791602002820160005b838211156105d457835183826101000a81548160ff021916908360ff1602179055509260200192600101602081600001049283019260010302610596565b80156106015782816101000a81549060ff02191690556001016020816000010492830192600103026105d4565b505b5090506106109190610642565b5090565b6040518061028001604052806014905b61062c61065f565b8152602001906001900390816106245790505090565b5b8082111561065b576000816000905550600101610643565b5090565b60405180604001604052806060815260200161067961067f565b81525090565b604051806103e00160405280601f90602082028036833780820191505090505090565b60006106b56106b084610bf7565b610bd2565b90508082856103e08602820111156106cc57600080fd5b60005b858110156106fd57816106e2888261085f565b84526020840193506103e083019250506001810190506106cf565b5050509392505050565b600061071a61071584610c1d565b610bd2565b9050808260005b8581101561075157813585016107378882610886565b845260208401935060208301925050600181019050610721565b5050509392505050565b600061076e61076984610c43565b610bd2565b9050808285602086028201111561078457600080fd5b60005b858110156107b4578161079a88826108c5565b845260208401935060208301925050600181019050610787565b5050509392505050565b60006107d16107cc84610c69565b610bd2565b9050828152602081018484840111156107e957600080fd5b6107f4848285610d6a565b509392505050565b60008135905061080b81610f1f565b92915050565b600082601f83011261082257600080fd5b601461082f8482856106a2565b91505092915050565b600082601f83011261084957600080fd5b6014610856848285610707565b91505092915050565b600082601f83011261087057600080fd5b601f61087d84828561075b565b91505092915050565b600082601f83011261089757600080fd5b81356108a78482602086016107be565b91505092915050565b6000813590506108bf81610f36565b92915050565b6000813590506108d481610f4d565b92915050565b6000602082840312156108ec57600080fd5b60006108fa848285016107fc565b91505092915050565b6000806040838503121561091657600080fd5b6000610924858286016107fc565b9250506020610935858286016108b0565b9150509250929050565b600080614da0838503121561095357600080fd5b600083013567ffffffffffffffff81111561096d57600080fd5b61097985828601610838565b925050602061098a85828601610811565b9150509250929050565b60006109a08383610b21565b905092915050565b60006109b48383610b5f565b60208301905092915050565b60006109cb82610cae565b6109d58185610ce9565b9350836020820285016109e785610c9a565b8060005b85811015610a235784840389528151610a048582610994565b9450610a0f83610ccf565b925060208a019950506001810190506109eb565b50829750879550505050505092915050565b610a3e81610cb9565b610a488184610cf4565b9250610a5382610ca4565b8060005b83811015610a84578151610a6b87826109a8565b9650610a7683610cdc565b925050600181019050610a57565b505050505050565b6000610a9782610cc4565b610aa18185610cff565b9350610ab1818560208601610d79565b610aba81610ee5565b840191505092915050565b6000610ad082610cc4565b610ada8185610d10565b9350610aea818560208601610d79565b610af381610ee5565b840191505092915050565b6000610b0b601a83610d10565b9150610b1682610ef6565b602082019050919050565b6000610400830160008301518482036000860152610b3f8282610a8c565b9150506020830151610b546020860182610a35565b508091505092915050565b610b6881610d5d565b82525050565b60006020820190508181036000830152610b8881846109c0565b905092915050565b60006020820190508181036000830152610baa8184610ac5565b905092915050565b60006020820190508181036000830152610bcb81610afe565b9050919050565b6000610bdc610bed565b9050610be88282610dde565b919050565b6000604051905090565b600067ffffffffffffffff821115610c1257610c11610eb6565b5b602082029050919050565b600067ffffffffffffffff821115610c3857610c37610eb6565b5b602082029050919050565b600067ffffffffffffffff821115610c5e57610c5d610eb6565b5b602082029050919050565b600067ffffffffffffffff821115610c8457610c83610eb6565b5b610c8d82610ee5565b9050602081019050919050565b6000819050919050565b6000819050919050565b600060149050919050565b6000601f9050919050565b600081519050919050565b6000602082019050919050565b6000602082019050919050565b600081905092915050565b600081905092915050565b600082825260208201905092915050565b600082825260208201905092915050565b6000610d2c82610d33565b9050919050565b600073ffffffffffffffffffffffffffffffffffffffff82169050919050565b6000819050919050565b600060ff82169050919050565b82818337600083830152505050565b60005b83811015610d97578082015181840152602081019050610d7c565b83811115610da6576000848401525b50505050565b60006002820490506001821680610dc457607f821691505b60208210811415610dd857610dd7610e87565b5b50919050565b610de782610ee5565b810181811067ffffffffffffffff82111715610e0657610e05610eb6565b5b80604052505050565b6000610e1a82610d53565b91507fffffffffffffffffffffffffffffffffffffffffffffffffffffffffffffffff821415610e4d57610e4c610e58565b5b600182019050919050565b7f4e487b7100000000000000000000000000000000000000000000000000000000600052601160045260246000fd5b7f4e487b7100000000000000000000000000000000000000000000000000000000600052602260045260246000fd5b7f4e487b7100000000000000000000000000000000000000000000000000000000600052604160045260246000fd5b6000601f19601f8301169050919050565b7f4d6178696d756d2032302068616269747320616c6c6f7765642e000000000000600082015250565b610f2881610d21565b8114610f3357600080fd5b50565b610f3f81610d53565b8114610f4a57600080fd5b50565b610f5681610d5d565b8114610f6157600080fd5b5056fea264697066735822122070e7840ea1e61fd88cf01ff98125747018da20e32ffae13fefb578a0956543f064736f6c63430008010033",
			"opcodes": "PUSH1 0x80 PUSH1 0x40 MSTORE CALLVALUE DUP1 ISZERO PUSH2 0x10 JUMPI PUSH1 0x0 DUP1 REVERT JUMPDEST POP PUSH2 0xF9A DUP1 PUSH2 0x20 PUSH1 0x0 CODECOPY PUSH1 0x0 RETURN INVALID PUSH1 0x80 PUSH1 0x40 MSTORE CALLVALUE DUP1 ISZERO PUSH2 0x10 JUMPI PUSH1 0x0 DUP1 REVERT JUMPDEST POP PUSH1 0x4 CALLDATASIZE LT PUSH2 0x41 JUMPI PUSH1 0x0 CALLDATALOAD PUSH1 0xE0 SHR DUP1 PUSH4 0x5F4B2E75 EQ PUSH2 0x46 JUMPI DUP1 PUSH4 0xC3C5951B EQ PUSH2 0x62 JUMPI DUP1 PUSH4 0xF0C7A362 EQ PUSH2 0x92 JUMPI JUMPDEST PUSH1 0x0 DUP1 REVERT JUMPDEST PUSH2 0x60 PUSH1 0x4 DUP1 CALLDATASIZE SUB DUP2 ADD SWAP1 PUSH2 0x5B SWAP2 SWAP1 PUSH2 0x93F JUMP JUMPDEST PUSH2 0xC2 JUMP JUMPDEST STOP JUMPDEST PUSH2 0x7C PUSH1 0x4 DUP1 CALLDATASIZE SUB DUP2 ADD SWAP1 PUSH2 0x77 SWAP2 SWAP1 PUSH2 0x8DA JUMP JUMPDEST PUSH2 0x2AF JUMP JUMPDEST PUSH1 0x40 MLOAD PUSH2 0x89 SWAP2 SWAP1 PUSH2 0xB6E JUMP JUMPDEST PUSH1 0x40 MLOAD DUP1 SWAP2 SUB SWAP1 RETURN JUMPDEST PUSH2 0xAC PUSH1 0x4 DUP1 CALLDATASIZE SUB DUP2 ADD SWAP1 PUSH2 0xA7 SWAP2 SWAP1 PUSH2 0x903 JUMP JUMPDEST PUSH2 0x43C JUMP JUMPDEST PUSH1 0x40 MLOAD PUSH2 0xB9 SWAP2 SWAP1 PUSH2 0xB90 JUMP JUMPDEST PUSH1 0x40 MLOAD DUP1 SWAP2 SUB SWAP1 RETURN JUMPDEST PUSH1 0x14 DUP1 GT ISZERO PUSH2 0x106 JUMPI PUSH1 0x40 MLOAD PUSH32 0x8C379A000000000000000000000000000000000000000000000000000000000 DUP2 MSTORE PUSH1 0x4 ADD PUSH2 0xFD SWAP1 PUSH2 0xBB2 JUMP JUMPDEST PUSH1 0x40 MLOAD DUP1 SWAP2 SUB SWAP1 REVERT JUMPDEST PUSH1 0x14 DUP1 GT ISZERO PUSH2 0x14A JUMPI PUSH1 0x40 MLOAD PUSH32 0x8C379A000000000000000000000000000000000000000000000000000000000 DUP2 MSTORE PUSH1 0x4 ADD PUSH2 0x141 SWAP1 PUSH2 0xBB2 JUMP JUMPDEST PUSH1 0x40 MLOAD DUP1 SWAP2 SUB SWAP1 REVERT JUMPDEST PUSH1 0x0 JUMPDEST PUSH1 0x14 DUP2 LT ISZERO PUSH2 0x2AA JUMPI PUSH1 0x40 MLOAD DUP1 PUSH1 0x40 ADD PUSH1 0x40 MSTORE DUP1 DUP5 DUP4 PUSH1 0x14 DUP2 LT PUSH2 0x19A JUMPI PUSH32 0x4E487B7100000000000000000000000000000000000000000000000000000000 PUSH1 0x0 MSTORE PUSH1 0x32 PUSH1 0x4 MSTORE PUSH1 0x24 PUSH1 0x0 REVERT JUMPDEST PUSH1 0x20 MUL ADD MLOAD DUP2 MSTORE PUSH1 0x20 ADD DUP4 DUP4 PUSH1 0x14 DUP2 LT PUSH2 0x1DD JUMPI PUSH32 0x4E487B7100000000000000000000000000000000000000000000000000000000 PUSH1 0x0 MSTORE PUSH1 0x32 PUSH1 0x4 MSTORE PUSH1 0x24 PUSH1 0x0 REVERT JUMPDEST PUSH1 0x20 MUL ADD MLOAD DUP2 MSTORE POP PUSH1 0x0 DUP1 CALLER PUSH20 0xFFFFFFFFFFFFFFFFFFFFFFFFFFFFFFFFFFFFFFFF AND PUSH20 0xFFFFFFFFFFFFFFFFFFFFFFFFFFFFFFFFFFFFFFFF AND DUP2 MSTORE PUSH1 0x20 ADD SWAP1 DUP2 MSTORE PUSH1 0x20 ADD PUSH1 0x0 KECCAK256 DUP3 PUSH1 0x14 DUP2 LT PUSH2 0x25B JUMPI PUSH32 0x4E487B7100000000000000000000000000000000000000000000000000000000 PUSH1 0x0 MSTORE PUSH1 0x32 PUSH1 0x4 MSTORE PUSH1 0x24 PUSH1 0x0 REVERT JUMPDEST PUSH1 0x2 MUL ADD PUSH1 0x0 DUP3 ADD MLOAD DUP2 PUSH1 0x0 ADD SWAP1 DUP1 MLOAD SWAP1 PUSH1 0x20 ADD SWAP1 PUSH2 0x27B SWAP3 SWAP2 SWAP1 PUSH2 0x4F5 JUMP JUMPDEST POP PUSH1 0x20 DUP3 ADD MLOAD DUP2 PUSH1 0x1 ADD SWAP1 PUSH1 0x1F PUSH2 0x293 SWAP3 SWAP2 SWAP1 PUSH2 0x57B JUMP JUMPDEST POP SWAP1 POP POP DUP1 DUP1 PUSH2 0x2A2 SWAP1 PUSH2 0xE0F JUMP JUMPDEST SWAP2 POP POP PUSH2 0x14D JUMP JUMPDEST POP POP POP JUMP JUMPDEST PUSH2 0x2B7 PUSH2 0x614 JUMP JUMPDEST PUSH1 0x0 DUP1 DUP4 PUSH20 0xFFFFFFFFFFFFFFFFFFFFFFFFFFFFFFFFFFFFFFFF AND PUSH20 0xFFFFFFFFFFFFFFFFFFFFFFFFFFFFFFFFFFFFFFFF AND DUP2 MSTORE PUSH1 0x20 ADD SWAP1 DUP2 MSTORE PUSH1 0x20 ADD PUSH1 0x0 KECCAK256 PUSH1 0x14 DUP1 PUSH1 0x20 MUL PUSH1 0x40 MLOAD SWAP1 DUP2 ADD PUSH1 0x40 MSTORE DUP1 SWAP3 SWAP2 SWAP1 PUSH1 0x0 SWAP1 JUMPDEST DUP3 DUP3 LT ISZERO PUSH2 0x431 JUMPI DUP4 DUP3 PUSH1 0x2 MUL ADD PUSH1 0x40 MLOAD DUP1 PUSH1 0x40 ADD PUSH1 0x40 MSTORE SWAP1 DUP2 PUSH1 0x0 DUP3 ADD DUP1 SLOAD PUSH2 0x335 SWAP1 PUSH2 0xDAC JUMP JUMPDEST DUP1 PUSH1 0x1F ADD PUSH1 0x20 DUP1 SWAP2 DIV MUL PUSH1 0x20 ADD PUSH1 0x40 MLOAD SWAP1 DUP2 ADD PUSH1 0x40 MSTORE DUP1 SWAP3 SWAP2 SWAP1 DUP2 DUP2 MSTORE PUSH1 0x20 ADD DUP3 DUP1 SLOAD PUSH2 0x361 SWAP1 PUSH2 0xDAC JUMP JUMPDEST DUP1 ISZERO PUSH2 0x3AE JUMPI DUP1 PUSH1 0x1F LT PUSH2 0x383 JUMPI PUSH2 0x100 DUP1 DUP4 SLOAD DIV MUL DUP4 MSTORE SWAP2 PUSH1 0x20 ADD SWAP2 PUSH2 0x3AE JUMP JUMPDEST DUP3 ADD SWAP2 SWAP1 PUSH1 0x0 MSTORE PUSH1 0x20 PUSH1 0x0 KECCAK256 SWAP1 JUMPDEST DUP2 SLOAD DUP2 MSTORE SWAP1 PUSH1 0x1 ADD SWAP1 PUSH1 0x20 ADD DUP1 DUP4 GT PUSH2 0x391 JUMPI DUP3 SWAP1 SUB PUSH1 0x1F AND DUP3 ADD SWAP2 JUMPDEST POP POP POP POP POP DUP2 MSTORE PUSH1 0x20 ADD PUSH1 0x1 DUP3 ADD PUSH1 0x1F DUP1 PUSH1 0x20 MUL PUSH1 0x40 MLOAD SWAP1 DUP2 ADD PUSH1 0x40 MSTORE DUP1 SWAP3 SWAP2 SWAP1 DUP3 PUSH1 0x1F DUP1 ISZERO PUSH2 0x419 JUMPI PUSH1 0x20 MUL DUP3 ADD SWAP2 PUSH1 0x0 SWAP1 JUMPDEST DUP3 DUP3 SWAP1 SLOAD SWAP1 PUSH2 0x100 EXP SWAP1 DIV PUSH1 0xFF AND PUSH1 0xFF AND DUP2 MSTORE PUSH1 0x20 ADD SWAP1 PUSH1 0x1 ADD SWAP1 PUSH1 0x20 DUP3 PUSH1 0x0 ADD DIV SWAP3 DUP4 ADD SWAP3 PUSH1 0x1 SUB DUP3 MUL SWAP2 POP DUP1 DUP5 GT PUSH2 0x3E2 JUMPI SWAP1 POP JUMPDEST POP POP POP POP POP DUP2 MSTORE POP POP DUP2 MSTORE PUSH1 0x20 ADD SWAP1 PUSH1 0x1 ADD SWAP1 PUSH2 0x30C JUMP JUMPDEST POP POP POP POP SWAP1 POP SWAP2 SWAP1 POP JUMP JUMPDEST PUSH1 0x0 PUSH1 0x20 MSTORE DUP2 PUSH1 0x0 MSTORE PUSH1 0x40 PUSH1 0x0 KECCAK256 DUP2 PUSH1 0x14 DUP2 LT PUSH2 0x458 JUMPI PUSH1 0x0 DUP1 REVERT JUMPDEST PUSH1 0x2 MUL ADD PUSH1 0x0 SWAP2 POP SWAP2 POP POP DUP1 PUSH1 0x0 ADD DUP1 SLOAD PUSH2 0x472 SWAP1 PUSH2 0xDAC JUMP JUMPDEST DUP1 PUSH1 0x1F ADD PUSH1 0x20 DUP1 SWAP2 DIV MUL PUSH1 0x20 ADD PUSH1 0x40 MLOAD SWAP1 DUP2 ADD PUSH1 0x40 MSTORE DUP1 SWAP3 SWAP2 SWAP1 DUP2 DUP2 MSTORE PUSH1 0x20 ADD DUP3 DUP1 SLOAD PUSH2 0x49E SWAP1 PUSH2 0xDAC JUMP JUMPDEST DUP1 ISZERO PUSH2 0x4EB JUMPI DUP1 PUSH1 0x1F LT PUSH2 0x4C0 JUMPI PUSH2 0x100 DUP1 DUP4 SLOAD DIV MUL DUP4 MSTORE SWAP2 PUSH1 0x20 ADD SWAP2 PUSH2 0x4EB JUMP JUMPDEST DUP3 ADD SWAP2 SWAP1 PUSH1 0x0 MSTORE PUSH1 0x20 PUSH1 0x0 KECCAK256 SWAP1 JUMPDEST DUP2 SLOAD DUP2 MSTORE SWAP1 PUSH1 0x1 ADD SWAP1 PUSH1 0x20 ADD DUP1 DUP4 GT PUSH2 0x4CE JUMPI DUP3 SWAP1 SUB PUSH1 0x1F AND DUP3 ADD SWAP2 JUMPDEST POP POP POP POP POP SWAP1 POP DUP2 JUMP JUMPDEST DUP3 DUP1 SLOAD PUSH2 0x501 SWAP1 PUSH2 0xDAC JUMP JUMPDEST SWAP1 PUSH1 0x0 MSTORE PUSH1 0x20 PUSH1 0x0 KECCAK256 SWAP1 PUSH1 0x1F ADD PUSH1 0x20 SWAP1 DIV DUP2 ADD SWAP3 DUP3 PUSH2 0x523 JUMPI PUSH1 0x0 DUP6 SSTORE PUSH2 0x56A JUMP JUMPDEST DUP3 PUSH1 0x1F LT PUSH2 0x53C JUMPI DUP1 MLOAD PUSH1 0xFF NOT AND DUP4 DUP1 ADD OR DUP6 SSTORE PUSH2 0x56A JUMP JUMPDEST DUP3 DUP1 ADD PUSH1 0x1 ADD DUP6 SSTORE DUP3 ISZERO PUSH2 0x56A JUMPI SWAP2 DUP3 ADD JUMPDEST DUP3 DUP2 GT ISZERO PUSH2 0x569 JUMPI DUP3 MLOAD DUP3 SSTORE SWAP2 PUSH1 0x20 ADD SWAP2 SWAP1 PUSH1 0x1 ADD SWAP1 PUSH2 0x54E JUMP JUMPDEST JUMPDEST POP SWAP1 POP PUSH2 0x577 SWAP2 SWAP1 PUSH2 0x642 JUMP JUMPDEST POP SWAP1 JUMP JUMPDEST DUP3 PUSH1 0x1F DUP1 ADD PUSH1 0x20 SWAP1 DIV DUP2 ADD SWAP3 DUP3 ISZERO PUSH2 0x603 JUMPI SWAP2 PUSH1 0x20 MUL DUP3 ADD PUSH1 0x0 JUMPDEST DUP4 DUP3 GT ISZERO PUSH2 0x5D4 JUMPI DUP4 MLOAD DUP4 DUP3 PUSH2 0x100 EXP DUP2 SLOAD DUP2 PUSH1 0xFF MUL NOT AND SWAP1 DUP4 PUSH1 0xFF AND MUL OR SWAP1 SSTORE POP SWAP3 PUSH1 0x20 ADD SWAP3 PUSH1 0x1 ADD PUSH1 0x20 DUP2 PUSH1 0x0 ADD DIV SWAP3 DUP4 ADD SWAP3 PUSH1 0x1 SUB MUL PUSH2 0x596 JUMP JUMPDEST DUP1 ISZERO PUSH2 0x601 JUMPI DUP3 DUP2 PUSH2 0x100 EXP DUP2 SLOAD SWAP1 PUSH1 0xFF MUL NOT AND SWAP1 SSTORE PUSH1 0x1 ADD PUSH1 0x20 DUP2 PUSH1 0x0 ADD DIV SWAP3 DUP4 ADD SWAP3 PUSH1 0x1 SUB MUL PUSH2 0x5D4 JUMP JUMPDEST POP JUMPDEST POP SWAP1 POP PUSH2 0x610 SWAP2 SWAP1 PUSH2 0x642 JUMP JUMPDEST POP SWAP1 JUMP JUMPDEST PUSH1 0x40 MLOAD DUP1 PUSH2 0x280 ADD PUSH1 0x40 MSTORE DUP1 PUSH1 0x14 SWAP1 JUMPDEST PUSH2 0x62C PUSH2 0x65F JUMP JUMPDEST DUP2 MSTORE PUSH1 0x20 ADD SWAP1 PUSH1 0x1 SWAP1 SUB SWAP1 DUP2 PUSH2 0x624 JUMPI SWAP1 POP POP SWAP1 JUMP JUMPDEST JUMPDEST DUP1 DUP3 GT ISZERO PUSH2 0x65B JUMPI PUSH1 0x0 DUP2 PUSH1 0x0 SWAP1 SSTORE POP PUSH1 0x1 ADD PUSH2 0x643 JUMP JUMPDEST POP SWAP1 JUMP JUMPDEST PUSH1 0x40 MLOAD DUP1 PUSH1 0x40 ADD PUSH1 0x40 MSTORE DUP1 PUSH1 0x60 DUP2 MSTORE PUSH1 0x20 ADD PUSH2 0x679 PUSH2 0x67F JUMP JUMPDEST DUP2 MSTORE POP SWAP1 JUMP JUMPDEST PUSH1 0x40 MLOAD DUP1 PUSH2 0x3E0 ADD PUSH1 0x40 MSTORE DUP1 PUSH1 0x1F SWAP1 PUSH1 0x20 DUP3 MUL DUP1 CALLDATASIZE DUP4 CALLDATACOPY DUP1 DUP3 ADD SWAP2 POP POP SWAP1 POP POP SWAP1 JUMP JUMPDEST PUSH1 0x0 PUSH2 0x6B5 PUSH2 0x6B0 DUP5 PUSH2 0xBF7 JUMP JUMPDEST PUSH2 0xBD2 JUMP JUMPDEST SWAP1 POP DUP1 DUP3 DUP6 PUSH2 0x3E0 DUP7 MUL DUP3 ADD GT ISZERO PUSH2 0x6CC JUMPI PUSH1 0x0 DUP1 REVERT JUMPDEST PUSH1 0x0 JUMPDEST DUP6 DUP2 LT ISZERO PUSH2 0x6FD JUMPI DUP2 PUSH2 0x6E2 DUP9 DUP3 PUSH2 0x85F JUMP JUMPDEST DUP5 MSTORE PUSH1 0x20 DUP5 ADD SWAP4 POP PUSH2 0x3E0 DUP4 ADD SWAP3 POP POP PUSH1 0x1 DUP2 ADD SWAP1 POP PUSH2 0x6CF JUMP JUMPDEST POP POP POP SWAP4 SWAP3 POP POP POP JUMP JUMPDEST PUSH1 0x0 PUSH2 0x71A PUSH2 0x715 DUP5 PUSH2 0xC1D JUMP JUMPDEST PUSH2 0xBD2 JUMP JUMPDEST SWAP1 POP DUP1 DUP3 PUSH1 0x0 JUMPDEST DUP6 DUP2 LT ISZERO PUSH2 0x751 JUMPI DUP2 CALLDATALOAD DUP6 ADD PUSH2 0x737 DUP9 DUP3 PUSH2 0x886 JUMP JUMPDEST DUP5 MSTORE PUSH1 0x20 DUP5 ADD SWAP4 POP PUSH1 0x20 DUP4 ADD SWAP3 POP POP PUSH1 0x1 DUP2 ADD SWAP1 POP PUSH2 0x721 JUMP JUMPDEST POP POP POP SWAP4 SWAP3 POP POP POP JUMP JUMPDEST PUSH1 0x0 PUSH2 0x76E PUSH2 0x769 DUP5 PUSH2 0xC43 JUMP JUMPDEST PUSH2 0xBD2 JUMP JUMPDEST SWAP1 POP DUP1 DUP3 DUP6 PUSH1 0x20 DUP7 MUL DUP3 ADD GT ISZERO PUSH2 0x784 JUMPI PUSH1 0x0 DUP1 REVERT JUMPDEST PUSH1 0x0 JUMPDEST DUP6 DUP2 LT ISZERO PUSH2 0x7B4 JUMPI DUP2 PUSH2 0x79A DUP9 DUP3 PUSH2 0x8C5 JUMP JUMPDEST DUP5 MSTORE PUSH1 0x20 DUP5 ADD SWAP4 POP PUSH1 0x20 DUP4 ADD SWAP3 POP POP PUSH1 0x1 DUP2 ADD SWAP1 POP PUSH2 0x787 JUMP JUMPDEST POP POP POP SWAP4 SWAP3 POP POP POP JUMP JUMPDEST PUSH1 0x0 PUSH2 0x7D1 PUSH2 0x7CC DUP5 PUSH2 0xC69 JUMP JUMPDEST PUSH2 0xBD2 JUMP JUMPDEST SWAP1 POP DUP3 DUP2 MSTORE PUSH1 0x20 DUP2 ADD DUP5 DUP5 DUP5 ADD GT ISZERO PUSH2 0x7E9 JUMPI PUSH1 0x0 DUP1 REVERT JUMPDEST PUSH2 0x7F4 DUP5 DUP3 DUP6 PUSH2 0xD6A JUMP JUMPDEST POP SWAP4 SWAP3 POP POP POP JUMP JUMPDEST PUSH1 0x0 DUP2 CALLDATALOAD SWAP1 POP PUSH2 0x80B DUP2 PUSH2 0xF1F JUMP JUMPDEST SWAP3 SWAP2 POP POP JUMP JUMPDEST PUSH1 0x0 DUP3 PUSH1 0x1F DUP4 ADD SLT PUSH2 0x822 JUMPI PUSH1 0x0 DUP1 REVERT JUMPDEST PUSH1 0x14 PUSH2 0x82F DUP5 DUP3 DUP6 PUSH2 0x6A2 JUMP JUMPDEST SWAP2 POP POP SWAP3 SWAP2 POP POP JUMP JUMPDEST PUSH1 0x0 DUP3 PUSH1 0x1F DUP4 ADD SLT PUSH2 0x849 JUMPI PUSH1 0x0 DUP1 REVERT JUMPDEST PUSH1 0x14 PUSH2 0x856 DUP5 DUP3 DUP6 PUSH2 0x707 JUMP JUMPDEST SWAP2 POP POP SWAP3 SWAP2 POP POP JUMP JUMPDEST PUSH1 0x0 DUP3 PUSH1 0x1F DUP4 ADD SLT PUSH2 0x870 JUMPI PUSH1 0x0 DUP1 REVERT JUMPDEST PUSH1 0x1F PUSH2 0x87D DUP5 DUP3 DUP6 PUSH2 0x75B JUMP JUMPDEST SWAP2 POP POP SWAP3 SWAP2 POP POP JUMP JUMPDEST PUSH1 0x0 DUP3 PUSH1 0x1F DUP4 ADD SLT PUSH2 0x897 JUMPI PUSH1 0x0 DUP1 REVERT JUMPDEST DUP2 CALLDATALOAD PUSH2 0x8A7 DUP5 DUP3 PUSH1 0x20 DUP7 ADD PUSH2 0x7BE JUMP JUMPDEST SWAP2 POP POP SWAP3 SWAP2 POP POP JUMP JUMPDEST PUSH1 0x0 DUP2 CALLDATALOAD SWAP1 POP PUSH2 0x8BF DUP2 PUSH2 0xF36 JUMP JUMPDEST SWAP3 SWAP2 POP POP JUMP JUMPDEST PUSH1 0x0 DUP2 CALLDATALOAD SWAP1 POP PUSH2 0x8D4 DUP2 PUSH2 0xF4D JUMP JUMPDEST SWAP3 SWAP2 POP POP JUMP JUMPDEST PUSH1 0x0 PUSH1 0x20 DUP3 DUP5 SUB SLT ISZERO PUSH2 0x8EC JUMPI PUSH1 0x0 DUP1 REVERT JUMPDEST PUSH1 0x0 PUSH2 0x8FA DUP5 DUP3 DUP6 ADD PUSH2 0x7FC JUMP JUMPDEST SWAP2 POP POP SWAP3 SWAP2 POP POP JUMP JUMPDEST PUSH1 0x0 DUP1 PUSH1 0x40 DUP4 DUP6 SUB SLT ISZERO PUSH2 0x916 JUMPI PUSH1 0x0 DUP1 REVERT JUMPDEST PUSH1 0x0 PUSH2 0x924 DUP6 DUP3 DUP7 ADD PUSH2 0x7FC JUMP JUMPDEST SWAP3 POP POP PUSH1 0x20 PUSH2 0x935 DUP6 DUP3 DUP7 ADD PUSH2 0x8B0 JUMP JUMPDEST SWAP2 POP POP SWAP3 POP SWAP3 SWAP1 POP JUMP JUMPDEST PUSH1 0x0 DUP1 PUSH2 0x4DA0 DUP4 DUP6 SUB SLT ISZERO PUSH2 0x953 JUMPI PUSH1 0x0 DUP1 REVERT JUMPDEST PUSH1 0x0 DUP4 ADD CALLDATALOAD PUSH8 0xFFFFFFFFFFFFFFFF DUP2 GT ISZERO PUSH2 0x96D JUMPI PUSH1 0x0 DUP1 REVERT JUMPDEST PUSH2 0x979 DUP6 DUP3 DUP7 ADD PUSH2 0x838 JUMP JUMPDEST SWAP3 POP POP PUSH1 0x20 PUSH2 0x98A DUP6 DUP3 DUP7 ADD PUSH2 0x811 JUMP JUMPDEST SWAP2 POP POP SWAP3 POP SWAP3 SWAP1 POP JUMP JUMPDEST PUSH1 0x0 PUSH2 0x9A0 DUP4 DUP4 PUSH2 0xB21 JUMP JUMPDEST SWAP1 POP SWAP3 SWAP2 POP POP JUMP JUMPDEST PUSH1 0x0 PUSH2 0x9B4 DUP4 DUP4 PUSH2 0xB5F JUMP JUMPDEST PUSH1 0x20 DUP4 ADD SWAP1 POP SWAP3 SWAP2 POP POP JUMP JUMPDEST PUSH1 0x0 PUSH2 0x9CB DUP3 PUSH2 0xCAE JUMP JUMPDEST PUSH2 0x9D5 DUP2 DUP6 PUSH2 0xCE9 JUMP JUMPDEST SWAP4 POP DUP4 PUSH1 0x20 DUP3 MUL DUP6 ADD PUSH2 0x9E7 DUP6 PUSH2 0xC9A JUMP JUMPDEST DUP1 PUSH1 0x0 JUMPDEST DUP6 DUP2 LT ISZERO PUSH2 0xA23 JUMPI DUP5 DUP5 SUB DUP10 MSTORE DUP2 MLOAD PUSH2 0xA04 DUP6 DUP3 PUSH2 0x994 JUMP JUMPDEST SWAP5 POP PUSH2 0xA0F DUP4 PUSH2 0xCCF JUMP JUMPDEST SWAP3 POP PUSH1 0x20 DUP11 ADD SWAP10 POP POP PUSH1 0x1 DUP2 ADD SWAP1 POP PUSH2 0x9EB JUMP JUMPDEST POP DUP3 SWAP8 POP DUP8 SWAP6 POP POP POP POP POP POP SWAP3 SWAP2 POP POP JUMP JUMPDEST PUSH2 0xA3E DUP2 PUSH2 0xCB9 JUMP JUMPDEST PUSH2 0xA48 DUP2 DUP5 PUSH2 0xCF4 JUMP JUMPDEST SWAP3 POP PUSH2 0xA53 DUP3 PUSH2 0xCA4 JUMP JUMPDEST DUP1 PUSH1 0x0 JUMPDEST DUP4 DUP2 LT ISZERO PUSH2 0xA84 JUMPI DUP2 MLOAD PUSH2 0xA6B DUP8 DUP3 PUSH2 0x9A8 JUMP JUMPDEST SWAP7 POP PUSH2 0xA76 DUP4 PUSH2 0xCDC JUMP JUMPDEST SWAP3 POP POP PUSH1 0x1 DUP2 ADD SWAP1 POP PUSH2 0xA57 JUMP JUMPDEST POP POP POP POP POP POP JUMP JUMPDEST PUSH1 0x0 PUSH2 0xA97 DUP3 PUSH2 0xCC4 JUMP JUMPDEST PUSH2 0xAA1 DUP2 DUP6 PUSH2 0xCFF JUMP JUMPDEST SWAP4 POP PUSH2 0xAB1 DUP2 DUP6 PUSH1 0x20 DUP7 ADD PUSH2 0xD79 JUMP JUMPDEST PUSH2 0xABA DUP2 PUSH2 0xEE5 JUMP JUMPDEST DUP5 ADD SWAP2 POP POP SWAP3 SWAP2 POP POP JUMP JUMPDEST PUSH1 0x0 PUSH2 0xAD0 DUP3 PUSH2 0xCC4 JUMP JUMPDEST PUSH2 0xADA DUP2 DUP6 PUSH2 0xD10 JUMP JUMPDEST SWAP4 POP PUSH2 0xAEA DUP2 DUP6 PUSH1 0x20 DUP7 ADD PUSH2 0xD79 JUMP JUMPDEST PUSH2 0xAF3 DUP2 PUSH2 0xEE5 JUMP JUMPDEST DUP5 ADD SWAP2 POP POP SWAP3 SWAP2 POP POP JUMP JUMPDEST PUSH1 0x0 PUSH2 0xB0B PUSH1 0x1A DUP4 PUSH2 0xD10 JUMP JUMPDEST SWAP2 POP PUSH2 0xB16 DUP3 PUSH2 0xEF6 JUMP JUMPDEST PUSH1 0x20 DUP3 ADD SWAP1 POP SWAP2 SWAP1 POP JUMP JUMPDEST PUSH1 0x0 PUSH2 0x400 DUP4 ADD PUSH1 0x0 DUP4 ADD MLOAD DUP5 DUP3 SUB PUSH1 0x0 DUP7 ADD MSTORE PUSH2 0xB3F DUP3 DUP3 PUSH2 0xA8C JUMP JUMPDEST SWAP2 POP POP PUSH1 0x20 DUP4 ADD MLOAD PUSH2 0xB54 PUSH1 0x20 DUP7 ADD DUP3 PUSH2 0xA35 JUMP JUMPDEST POP DUP1 SWAP2 POP POP SWAP3 SWAP2 POP POP JUMP JUMPDEST PUSH2 0xB68 DUP2 PUSH2 0xD5D JUMP JUMPDEST DUP3 MSTORE POP POP JUMP JUMPDEST PUSH1 0x0 PUSH1 0x20 DUP3 ADD SWAP1 POP DUP2 DUP2 SUB PUSH1 0x0 DUP4 ADD MSTORE PUSH2 0xB88 DUP2 DUP5 PUSH2 0x9C0 JUMP JUMPDEST SWAP1 POP SWAP3 SWAP2 POP POP JUMP JUMPDEST PUSH1 0x0 PUSH1 0x20 DUP3 ADD SWAP1 POP DUP2 DUP2 SUB PUSH1 0x0 DUP4 ADD MSTORE PUSH2 0xBAA DUP2 DUP5 PUSH2 0xAC5 JUMP JUMPDEST SWAP1 POP SWAP3 SWAP2 POP POP JUMP JUMPDEST PUSH1 0x0 PUSH1 0x20 DUP3 ADD SWAP1 POP DUP2 DUP2 SUB PUSH1 0x0 DUP4 ADD MSTORE PUSH2 0xBCB DUP2 PUSH2 0xAFE JUMP JUMPDEST SWAP1 POP SWAP2 SWAP1 POP JUMP JUMPDEST PUSH1 0x0 PUSH2 0xBDC PUSH2 0xBED JUMP JUMPDEST SWAP1 POP PUSH2 0xBE8 DUP3 DUP3 PUSH2 0xDDE JUMP JUMPDEST SWAP2 SWAP1 POP JUMP JUMPDEST PUSH1 0x0 PUSH1 0x40 MLOAD SWAP1 POP SWAP1 JUMP JUMPDEST PUSH1 0x0 PUSH8 0xFFFFFFFFFFFFFFFF DUP3 GT ISZERO PUSH2 0xC12 JUMPI PUSH2 0xC11 PUSH2 0xEB6 JUMP JUMPDEST JUMPDEST PUSH1 0x20 DUP3 MUL SWAP1 POP SWAP2 SWAP1 POP JUMP JUMPDEST PUSH1 0x0 PUSH8 0xFFFFFFFFFFFFFFFF DUP3 GT ISZERO PUSH2 0xC38 JUMPI PUSH2 0xC37 PUSH2 0xEB6 JUMP JUMPDEST JUMPDEST PUSH1 0x20 DUP3 MUL SWAP1 POP SWAP2 SWAP1 POP JUMP JUMPDEST PUSH1 0x0 PUSH8 0xFFFFFFFFFFFFFFFF DUP3 GT ISZERO PUSH2 0xC5E JUMPI PUSH2 0xC5D PUSH2 0xEB6 JUMP JUMPDEST JUMPDEST PUSH1 0x20 DUP3 MUL SWAP1 POP SWAP2 SWAP1 POP JUMP JUMPDEST PUSH1 0x0 PUSH8 0xFFFFFFFFFFFFFFFF DUP3 GT ISZERO PUSH2 0xC84 JUMPI PUSH2 0xC83 PUSH2 0xEB6 JUMP JUMPDEST JUMPDEST PUSH2 0xC8D DUP3 PUSH2 0xEE5 JUMP JUMPDEST SWAP1 POP PUSH1 0x20 DUP2 ADD SWAP1 POP SWAP2 SWAP1 POP JUMP JUMPDEST PUSH1 0x0 DUP2 SWAP1 POP SWAP2 SWAP1 POP JUMP JUMPDEST PUSH1 0x0 DUP2 SWAP1 POP SWAP2 SWAP1 POP JUMP JUMPDEST PUSH1 0x0 PUSH1 0x14 SWAP1 POP SWAP2 SWAP1 POP JUMP JUMPDEST PUSH1 0x0 PUSH1 0x1F SWAP1 POP SWAP2 SWAP1 POP JUMP JUMPDEST PUSH1 0x0 DUP2 MLOAD SWAP1 POP SWAP2 SWAP1 POP JUMP JUMPDEST PUSH1 0x0 PUSH1 0x20 DUP3 ADD SWAP1 POP SWAP2 SWAP1 POP JUMP JUMPDEST PUSH1 0x0 PUSH1 0x20 DUP3 ADD SWAP1 POP SWAP2 SWAP1 POP JUMP JUMPDEST PUSH1 0x0 DUP2 SWAP1 POP SWAP3 SWAP2 POP POP JUMP JUMPDEST PUSH1 0x0 DUP2 SWAP1 POP SWAP3 SWAP2 POP POP JUMP JUMPDEST PUSH1 0x0 DUP3 DUP3 MSTORE PUSH1 0x20 DUP3 ADD SWAP1 POP SWAP3 SWAP2 POP POP JUMP JUMPDEST PUSH1 0x0 DUP3 DUP3 MSTORE PUSH1 0x20 DUP3 ADD SWAP1 POP SWAP3 SWAP2 POP POP JUMP JUMPDEST PUSH1 0x0 PUSH2 0xD2C DUP3 PUSH2 0xD33 JUMP JUMPDEST SWAP1 POP SWAP2 SWAP1 POP JUMP JUMPDEST PUSH1 0x0 PUSH20 0xFFFFFFFFFFFFFFFFFFFFFFFFFFFFFFFFFFFFFFFF DUP3 AND SWAP1 POP SWAP2 SWAP1 POP JUMP JUMPDEST PUSH1 0x0 DUP2 SWAP1 POP SWAP2 SWAP1 POP JUMP JUMPDEST PUSH1 0x0 PUSH1 0xFF DUP3 AND SWAP1 POP SWAP2 SWAP1 POP JUMP JUMPDEST DUP3 DUP2 DUP4 CALLDATACOPY PUSH1 0x0 DUP4 DUP4 ADD MSTORE POP POP POP JUMP JUMPDEST PUSH1 0x0 JUMPDEST DUP4 DUP2 LT ISZERO PUSH2 0xD97 JUMPI DUP1 DUP3 ADD MLOAD DUP2 DUP5 ADD MSTORE PUSH1 0x20 DUP2 ADD SWAP1 POP PUSH2 0xD7C JUMP JUMPDEST DUP4 DUP2 GT ISZERO PUSH2 0xDA6 JUMPI PUSH1 0x0 DUP5 DUP5 ADD MSTORE JUMPDEST POP POP POP POP JUMP JUMPDEST PUSH1 0x0 PUSH1 0x2 DUP3 DIV SWAP1 POP PUSH1 0x1 DUP3 AND DUP1 PUSH2 0xDC4 JUMPI PUSH1 0x7F DUP3 AND SWAP2 POP JUMPDEST PUSH1 0x20 DUP3 LT DUP2 EQ ISZERO PUSH2 0xDD8 JUMPI PUSH2 0xDD7 PUSH2 0xE87 JUMP JUMPDEST JUMPDEST POP SWAP2 SWAP1 POP JUMP JUMPDEST PUSH2 0xDE7 DUP3 PUSH2 0xEE5 JUMP JUMPDEST DUP2 ADD DUP2 DUP2 LT PUSH8 0xFFFFFFFFFFFFFFFF DUP3 GT OR ISZERO PUSH2 0xE06 JUMPI PUSH2 0xE05 PUSH2 0xEB6 JUMP JUMPDEST JUMPDEST DUP1 PUSH1 0x40 MSTORE POP POP POP JUMP JUMPDEST PUSH1 0x0 PUSH2 0xE1A DUP3 PUSH2 0xD53 JUMP JUMPDEST SWAP2 POP PUSH32 0xFFFFFFFFFFFFFFFFFFFFFFFFFFFFFFFFFFFFFFFFFFFFFFFFFFFFFFFFFFFFFFFF DUP3 EQ ISZERO PUSH2 0xE4D JUMPI PUSH2 0xE4C PUSH2 0xE58 JUMP JUMPDEST JUMPDEST PUSH1 0x1 DUP3 ADD SWAP1 POP SWAP2 SWAP1 POP JUMP JUMPDEST PUSH32 0x4E487B7100000000000000000000000000000000000000000000000000000000 PUSH1 0x0 MSTORE PUSH1 0x11 PUSH1 0x4 MSTORE PUSH1 0x24 PUSH1 0x0 REVERT JUMPDEST PUSH32 0x4E487B7100000000000000000000000000000000000000000000000000000000 PUSH1 0x0 MSTORE PUSH1 0x22 PUSH1 0x4 MSTORE PUSH1 0x24 PUSH1 0x0 REVERT JUMPDEST PUSH32 0x4E487B7100000000000000000000000000000000000000000000000000000000 PUSH1 0x0 MSTORE PUSH1 0x41 PUSH1 0x4 MSTORE PUSH1 0x24 PUSH1 0x0 REVERT JUMPDEST PUSH1 0x0 PUSH1 0x1F NOT PUSH1 0x1F DUP4 ADD AND SWAP1 POP SWAP2 SWAP1 POP JUMP JUMPDEST PUSH32 0x4D6178696D756D2032302068616269747320616C6C6F7765642E000000000000 PUSH1 0x0 DUP3 ADD MSTORE POP JUMP JUMPDEST PUSH2 0xF28 DUP2 PUSH2 0xD21 JUMP JUMPDEST DUP2 EQ PUSH2 0xF33 JUMPI PUSH1 0x0 DUP1 REVERT JUMPDEST POP JUMP JUMPDEST PUSH2 0xF3F DUP2 PUSH2 0xD53 JUMP JUMPDEST DUP2 EQ PUSH2 0xF4A JUMPI PUSH1 0x0 DUP1 REVERT JUMPDEST POP JUMP JUMPDEST PUSH2 0xF56 DUP2 PUSH2 0xD5D JUMP JUMPDEST DUP2 EQ PUSH2 0xF61 JUMPI PUSH1 0x0 DUP1 REVERT JUMPDEST POP JUMP INVALID LOG2 PUSH5 0x6970667358 0x22 SLT KECCAK256 PUSH17 0xE7840EA1E61FD88CF01FF98125747018DA KECCAK256 0xE3 0x2F STATICCALL 0xE1 EXTCODEHASH 0xEF 0xB5 PUSH25 0xA0956543F064736F6C63430008010033000000000000000000 "
		},
		"gasEstimates": {
			"creation": {
				"codeDepositCost": "798800",
				"executionCost": "831",
				"totalCost": "799631"
			},
			"external": {
				"getHabits(address)": "infinite",
				"saveHabits(string[20],uint8[31][20])": "infinite",
				"userHabits(address,uint256)": "infinite"
			}
		},
		"methodIdentifiers": {
			"getHabits(address)": "c3c5951b",
			"saveHabits(string[20],uint8[31][20])": "5f4b2e75",
			"userHabits(address,uint256)": "f0c7a362"
		}
	},
	"abi": [
		{
			"inputs": [
				{
					"internalType": "address",
					"name": "user",
					"type": "address"
				}
			],
			"name": "getHabits",
			"outputs": [
				{
					"components": [
						{
							"internalType": "string",
							"name": "habitName",
							"type": "string"
						},
						{
							"internalType": "uint8[31]",
							"name": "checkboxStatus",
							"type": "uint8[31]"
						}
					],
					"internalType": "struct HabitTracker.HabitData[20]",
					"name": "",
					"type": "tuple[20]"
				}
			],
			"stateMutability": "view",
			"type": "function"
		},
		{
			"inputs": [
				{
					"internalType": "string[20]",
					"name": "_habitNames",
					"type": "string[20]"
				},
				{
					"internalType": "uint8[31][20]",
					"name": "_checkboxes",
					"type": "uint8[31][20]"
				}
			],
			"name": "saveHabits",
			"outputs": [],
			"stateMutability": "nonpayable",
			"type": "function"
		},
		{
			"inputs": [
				{
					"internalType": "address",
					"name": "",
					"type": "address"
				},
				{
					"internalType": "uint256",
					"name": "",
					"type": "uint256"
				}
			],
			"name": "userHabits",
			"outputs": [
				{
					"internalType": "string",
					"name": "habitName",
					"type": "string"
				}
			],
			"stateMutability": "view",
			"type": "function"
		}
	]
}